{
  "address": "0x81B3857cD770887fa1d839AbEa66f951ECa4206f",
  "abi": [
    {
      "inputs": [
        {
          "internalType": "contract DataStore",
          "name": "_dataStore",
          "type": "address"
        },
        {
          "internalType": "address",
          "name": "pythLazerFeedVerifier",
          "type": "address"
        }
      ],
      "stateMutability": "nonpayable",
      "type": "constructor"
    },
    {
      "inputs": [
        {
          "internalType": "address",
          "name": "token",
          "type": "address"
        }
      ],
      "name": "EmptyPythLazerFeedData",
      "type": "error"
    },
    {
      "inputs": [
        {
          "internalType": "address",
          "name": "token",
          "type": "address"
        }
      ],
      "name": "EmptyPythLazerFeedId",
      "type": "error"
    },
    {
      "inputs": [
        {
          "internalType": "address",
          "name": "token",
          "type": "address"
        }
      ],
      "name": "EmptyPythLazerFeedMultiplier",
      "type": "error"
    },
    {
      "inputs": [
        {
          "internalType": "address",
          "name": "token",
          "type": "address"
        },
        {
          "internalType": "int256",
          "name": "price",
          "type": "int256"
        }
      ],
      "name": "InvalidFeedPrice",
      "type": "error"
    },
    {
      "inputs": [
        {
          "internalType": "uint256",
          "name": "oracleTimestamp",
          "type": "uint256"
        },
        {
          "internalType": "uint256",
          "name": "currentTimestamp",
          "type": "uint256"
        }
      ],
      "name": "MaxPriceAgeExceeded",
      "type": "error"
    },
    {
      "inputs": [
        {
          "internalType": "address",
          "name": "token",
          "type": "address"
        },
        {
          "internalType": "uint256",
          "name": "publishedTimestamp",
          "type": "uint256"
        },
        {
          "internalType": "uint256",
          "name": "storedTimestamp",
          "type": "uint256"
        }
      ],
      "name": "StaleOraclePrice",
      "type": "error"
    },
    {
      "inputs": [],
      "name": "dataStore",
      "outputs": [
        {
          "internalType": "contract DataStore",
          "name": "",
          "type": "address"
        }
      ],
      "stateMutability": "view",
      "type": "function"
    },
    {
      "inputs": [
        {
          "internalType": "address",
          "name": "token",
          "type": "address"
        },
        {
          "internalType": "bytes",
          "name": "",
          "type": "bytes"
        }
      ],
      "name": "getOraclePrice",
      "outputs": [
        {
          "components": [
            {
              "internalType": "address",
              "name": "token",
              "type": "address"
            },
            {
              "internalType": "uint256",
              "name": "min",
              "type": "uint256"
            },
            {
              "internalType": "uint256",
              "name": "max",
              "type": "uint256"
            },
            {
              "internalType": "uint256",
              "name": "timestamp",
              "type": "uint256"
            },
            {
              "internalType": "address",
              "name": "provider",
              "type": "address"
            }
          ],
          "internalType": "struct OracleUtils.ValidatedPrice",
          "name": "",
          "type": "tuple"
        }
      ],
      "stateMutability": "view",
      "type": "function"
    },
    {
      "inputs": [
        {
          "internalType": "address",
          "name": "token",
          "type": "address"
        }
      ],
      "name": "getStoredPrice",
      "outputs": [
        {
          "internalType": "bool",
          "name": "",
          "type": "bool"
        },
        {
          "components": [
            {
              "internalType": "address",
              "name": "token",
              "type": "address"
            },
            {
              "internalType": "uint256",
              "name": "min",
              "type": "uint256"
            },
            {
              "internalType": "uint256",
              "name": "max",
              "type": "uint256"
            },
            {
              "internalType": "uint256",
              "name": "timestamp",
              "type": "uint256"
            },
            {
              "internalType": "address",
              "name": "provider",
              "type": "address"
            }
          ],
          "internalType": "struct OracleUtils.ValidatedPrice",
          "name": "",
          "type": "tuple"
        }
      ],
      "stateMutability": "view",
      "type": "function"
    },
    {
      "inputs": [],
      "name": "pythLazer",
      "outputs": [
        {
          "internalType": "contract PythLazer",
          "name": "",
          "type": "address"
        }
      ],
      "stateMutability": "view",
      "type": "function"
    },
    {
      "inputs": [
        {
          "internalType": "address",
          "name": "",
          "type": "address"
        }
      ],
      "name": "storedPrices",
      "outputs": [
        {
          "internalType": "address",
          "name": "token",
          "type": "address"
        },
        {
          "internalType": "uint256",
          "name": "min",
          "type": "uint256"
        },
        {
          "internalType": "uint256",
          "name": "max",
          "type": "uint256"
        },
        {
          "internalType": "uint256",
          "name": "timestamp",
          "type": "uint256"
        },
        {
          "internalType": "address",
          "name": "provider",
          "type": "address"
        }
      ],
      "stateMutability": "view",
      "type": "function"
    },
    {
      "inputs": [
        {
          "internalType": "address",
          "name": "token",
          "type": "address"
        },
        {
          "internalType": "bytes",
          "name": "rawUpdate",
          "type": "bytes"
        }
      ],
      "name": "updatePrice",
      "outputs": [],
      "stateMutability": "payable",
      "type": "function"
    }
  ],
  "transactionHash": "0x32701a0e43b140f9ca8a1fca99dae396917bf5c55ae8515318bcfe52ba29322c",
  "args": [
    "0x3B9d71B497aD2d3c32a7c24e96565f84a58089a7",
    "0xacea761c27a909d4d3895128ebe6370fde2df481"
  ],
  "numDeployments": 1,
  "solcInputHash": "d8aab201dc996a0c7b962530e430cfe7",
  "bytecode": "0x60c060405234801561001057600080fd5b5060405161152c38038061152c83398101604081905261002f9161005e565b6001600160a01b039182166080521660a052610098565b6001600160a01b038116811461005b57600080fd5b50565b6000806040838503121561007157600080fd5b825161007c81610046565b602084015190925061008d81610046565b809150509250929050565b60805160a0516114476100e56000396000818160e3015281816105fa015261062901526000818160a201528181610230015281816103dd015281816104a1015261055f01526114476000f3fe6080604052600436106100555760003560e01c8063377bbdaf1461005a578063660d0d671461009057806384ee4a60146100d1578063879e7da814610105578063a7a1949314610133578063d6c6b09f146101bc575b600080fd5b34801561006657600080fd5b5061007a610075366004610de4565b6101d1565b6040516100879190610ead565b60405180910390f35b34801561009c57600080fd5b506100c47f000000000000000000000000000000000000000000000000000000000000000081565b6040516100879190610ebb565b3480156100dd57600080fd5b506100c47f000000000000000000000000000000000000000000000000000000000000000081565b34801561011157600080fd5b50610125610120366004610ecf565b610362565b604051610087929190610eea565b34801561013f57600080fd5b5061018861014e366004610ecf565b600060208190529081526040902080546001820154600283015460038401546004909401546001600160a01b039384169492939192911685565b604080516001600160a01b03968716815260208101959095528401929092526060830152909116608082015260a001610087565b6101cf6101ca366004610f00565b6103d9565b005b6101d9610ccf565b6001600160a01b03808416600090815260208181526040808320815160a0810183528154861681526001820154818501526002820154818401526003820154606082015260049091015485166080820152905190937f0000000000000000000000000000000000000000000000000000000000000000169163bd02d0f59161028a91016020808252601490820152734d41585f4f5241434c455f50524943455f41474560601b604082015260600190565b604051602081830303815290604052805190602001206040518263ffffffff1660e01b81526004016102be91815260200190565b602060405180830381865afa1580156102db573d6000803e3d6000fd5b505050506040513d601f19601f820116820180604052508101906102ff9190610f82565b905060008111801561032657508082606001516103194290565b6103239190610f9b565b10155b1561035857606082015142604051632b6e7c3f60e01b8152600481019290925260248201526044015b60405180910390fd5b5090505b92915050565b600061036c610ccf565b6001600160a01b03808416600090815260208181526040808320815160a081018352815486168152600182015493810193909352600281015491830191909152600381015460608301819052600490910154909316608082015291156103d0575060015b94909350915050565b60007f00000000000000000000000000000000000000000000000000000000000000006001600160a01b031663bd02d0f561041386610ace565b6040518263ffffffff1660e01b815260040161043191815260200190565b602060405180830381865afa15801561044e573d6000803e3d6000fd5b505050506040513d601f19601f820116820180604052508101906104729190610f82565b90508063ffffffff1660000361049d57836040516375860f7f60e11b815260040161034f9190610ebb565b60007f00000000000000000000000000000000000000000000000000000000000000006001600160a01b031663bd02d0f56104d787610b50565b6040518263ffffffff1660e01b81526004016104f591815260200190565b602060405180830381865afa158015610512573d6000803e3d6000fd5b505050506040513d601f19601f820116820180604052508101906105369190610f82565b90508060000361055b5784604051636fd32f9560e01b815260040161034f9190610ebb565b60007f00000000000000000000000000000000000000000000000000000000000000006001600160a01b0316637ae1cfca61059588610b90565b6040518263ffffffff1660e01b81526004016105b391815260200190565b602060405180830381865afa1580156105d0573d6000803e3d6000fd5b505050506040513d601f19601f820116820180604052508101906105f49190610fbc565b905060007f00000000000000000000000000000000000000000000000000000000000000006001600160a01b031663604387417f00000000000000000000000000000000000000000000000000000000000000006001600160a01b031663bac12f876040518163ffffffff1660e01b8152600401602060405180830381865afa158015610685573d6000803e3d6000fd5b505050506040513d601f19601f820116820180604052508101906106a99190610f82565b88886040518463ffffffff1660e01b81526004016106c8929190610fde565b60006040518083038185885af11580156106e6573d6000803e3d6000fd5b50505050506040513d6000823e601f3d908101601f1916820160405261070f919081019061120e565b6001600160a01b03891660009081526020819052604090206003015481519193506001600160401b03909116101590506107975780516001600160a01b0388166000818152602081905260409081902060030154905163dab4498d60e01b815260048101929092526001600160401b039092166024820152604481019190915260640161034f565b60005b816040015151811015610ab2576000826040015182815181106107bf576107bf6112c7565b602002602001015190508563ffffffff16816020015163ffffffff1603610aa957604051631b68a58f60e21b815260009073293404C813Da5d046ebd3500D619160ce553eb7a90636da2963c9061081a9085906004016112dd565b602060405180830381865af4158015610837573d6000803e3d6000fd5b505050506040513d601f19601f8201168201806040525081019061085b91906113c7565b905060008160070b121561088957898160070b604051635f328a5b60e11b815260040161034f9291906113e2565b604051631d784ead60e21b815260009073293404C813Da5d046ebd3500D619160ce553eb7a906375e13ab4906108c39086906004016112dd565b602060405180830381865af41580156108e0573d6000803e3d6000fd5b505050506040513d601f19601f8201168201806040525081019061090491906113c7565b905060008160070b1215610932578a8160070b604051635f328a5b60e11b815260040161034f9291906113e2565b6000610954826001600160401b03168968327cb2734119d3b7a9601e1b610bce565b90506000610978846001600160401b03168a68327cb2734119d3b7a9601e1b610bce565b905087156109b5578161099868327cb2734119d3b7a9601e1b8084610bce565b92506109b168327cb2734119d3b7a9601e1b8083610bce565b9150505b6040518060a001604052808e6001600160a01b0316815260200183815260200182815260200188600001516001600160401b03168152602001306001600160a01b03168152506000808f6001600160a01b03166001600160a01b0316815260200190815260200160002060008201518160000160006101000a8154816001600160a01b0302191690836001600160a01b0316021790555060208201518160010155604082015181600201556060820151816003015560808201518160040160006101000a8154816001600160a01b0302191690836001600160a01b0316021790555090505050505050505050505050505050565b5060010161079a565b5086604051633f2de87160e11b815260040161034f9190610ebb565b6000604051602001610b06906020808252601290820152711416551217d31056915497d191515117d25160721b604082015260600190565b60408051601f198184030181528282528051602091820120908301526001600160a01b03841690820152606001604051602081830303815290604052805190602001209050919050565b6000604051602001610b06906020808252601a9082015279282caa242fa620ad22a92fa322a2a22fa6aaa62a24a82624a2a960311b604082015260600190565b6000604051602001610b06906020808252601890820152771416551217d31056915497d191515117d25395915495115160421b604082015260600190565b6000610bdb848484610be5565b90505b9392505050565b6000808060001985870985870292508281108382030391505080600003610c1f57838281610c1557610c156113fb565b0492505050610bde565b808411610c665760405162461bcd60e51b81526020600482015260156024820152744d6174683a206d756c446976206f766572666c6f7760581b604482015260640161034f565b60008486880960026001871981018816978890046003810283188082028403028082028403028082028403028082028403028082028403029081029092039091026000889003889004909101858311909403939093029303949094049190911702949350505050565b6040518060a0016040528060006001600160a01b0316815260200160008152602001600081526020016000815260200160006001600160a01b031681525090565b80356001600160a01b0381168114610d2757600080fd5b919050565b634e487b7160e01b600052604160045260246000fd5b604051606081016001600160401b0381118282101715610d6457610d64610d2c565b60405290565b60405161016081016001600160401b0381118282101715610d6457610d64610d2c565b604051601f8201601f191681016001600160401b0381118282101715610db557610db5610d2c565b604052919050565b60006001600160401b03821115610dd657610dd6610d2c565b50601f01601f191660200190565b60008060408385031215610df757600080fd5b610e0083610d10565b915060208301356001600160401b03811115610e1b57600080fd5b8301601f81018513610e2c57600080fd5b8035610e3f610e3a82610dbd565b610d8d565b818152866020838501011115610e5457600080fd5b816020840160208301376000602083830101528093505050509250929050565b80516001600160a01b03908116835260208083015190840152604080830151908401526060808301519084015260809182015116910152565b60a0810161035c8284610e74565b6001600160a01b0391909116815260200190565b600060208284031215610ee157600080fd5b610bde82610d10565b821515815260c08101610bde6020830184610e74565b600080600060408486031215610f1557600080fd5b610f1e84610d10565b925060208401356001600160401b0380821115610f3a57600080fd5b818601915086601f830112610f4e57600080fd5b813581811115610f5d57600080fd5b876020828501011115610f6f57600080fd5b6020830194508093505050509250925092565b600060208284031215610f9457600080fd5b5051919050565b8181038181111561035c57634e487b7160e01b600052601160045260246000fd5b600060208284031215610fce57600080fd5b81518015158114610bde57600080fd5b60208152816020820152818360408301376000818301604090810191909152601f909201601f19160101919050565b80516001600160401b0381168114610d2757600080fd5b805163ffffffff81168114610d2757600080fd5b8051600781900b8114610d2757600080fd5b805161ffff81168114610d2757600080fd5b8051600181900b8114610d2757600080fd5b6000606080838503121561108157600080fd5b611089610d42565b91506110948361100d565b8252602080840151600581106110a957600080fd5b838201526040848101516001600160401b03808211156110c857600080fd5b818701915087601f8301126110dc57600080fd5b8151818111156110ee576110ee610d2c565b6110fc858260051b01610d8d565b818152858101925061016091820284018601918a83111561111c57600080fd5b938601935b828510156111fb5780858c0312156111395760008081fd5b611141610d6a565b85518152611150888701611024565b8882015261115f878701611038565b8782015261116e89870161104a565b89820152608061117f81880161105c565b9082015260a0611190878201611038565b9082015260c06111a1878201611038565b9082015260e06111b287820161100d565b908201526101006111c4878201611038565b908201526101206111d687820161100d565b908201526101406111e887820161100d565b9082015284529384019392860192611121565b5060408801525094979650505050505050565b6000806040838503121561122157600080fd5b82516001600160401b038082111561123857600080fd5b818501915085601f83011261124c57600080fd5b815161125a610e3a82610dbd565b8181526020888184870101111561127057600080fd5b60005b8381101561128e578581018201518382018301528101611273565b506000818484010152819650808801519450505050808211156112b057600080fd5b506112bd8582860161106e565b9150509250929050565b634e487b7160e01b600052603260045260246000fd5b815181526020808301516101608301916112fe9084018263ffffffff169052565b506040830151611313604084018260070b9052565b506060830151611329606084018261ffff169052565b50608083015161133e608084018260010b9052565b5060a083015161135360a084018260070b9052565b5060c083015161136860c084018260070b9052565b5060e083015161138360e08401826001600160401b03169052565b50610100808401516113998285018260070b9052565b5050610120838101516001600160401b03908116918401919091526101409384015116929091019190915290565b6000602082840312156113d957600080fd5b610bde82611038565b6001600160a01b03929092168252602082015260400190565b634e487b7160e01b600052601260045260246000fdfea26469706673582212208124bd2c63d765eeb30ffca1df4926e8ab2f3ebd436dbe8f45aae66bedfebccb64736f6c63430008180033",
  "deployedBytecode": "0x6080604052600436106100555760003560e01c8063377bbdaf1461005a578063660d0d671461009057806384ee4a60146100d1578063879e7da814610105578063a7a1949314610133578063d6c6b09f146101bc575b600080fd5b34801561006657600080fd5b5061007a610075366004610de4565b6101d1565b6040516100879190610ead565b60405180910390f35b34801561009c57600080fd5b506100c47f000000000000000000000000000000000000000000000000000000000000000081565b6040516100879190610ebb565b3480156100dd57600080fd5b506100c47f000000000000000000000000000000000000000000000000000000000000000081565b34801561011157600080fd5b50610125610120366004610ecf565b610362565b604051610087929190610eea565b34801561013f57600080fd5b5061018861014e366004610ecf565b600060208190529081526040902080546001820154600283015460038401546004909401546001600160a01b039384169492939192911685565b604080516001600160a01b03968716815260208101959095528401929092526060830152909116608082015260a001610087565b6101cf6101ca366004610f00565b6103d9565b005b6101d9610ccf565b6001600160a01b03808416600090815260208181526040808320815160a0810183528154861681526001820154818501526002820154818401526003820154606082015260049091015485166080820152905190937f0000000000000000000000000000000000000000000000000000000000000000169163bd02d0f59161028a91016020808252601490820152734d41585f4f5241434c455f50524943455f41474560601b604082015260600190565b604051602081830303815290604052805190602001206040518263ffffffff1660e01b81526004016102be91815260200190565b602060405180830381865afa1580156102db573d6000803e3d6000fd5b505050506040513d601f19601f820116820180604052508101906102ff9190610f82565b905060008111801561032657508082606001516103194290565b6103239190610f9b565b10155b1561035857606082015142604051632b6e7c3f60e01b8152600481019290925260248201526044015b60405180910390fd5b5090505b92915050565b600061036c610ccf565b6001600160a01b03808416600090815260208181526040808320815160a081018352815486168152600182015493810193909352600281015491830191909152600381015460608301819052600490910154909316608082015291156103d0575060015b94909350915050565b60007f00000000000000000000000000000000000000000000000000000000000000006001600160a01b031663bd02d0f561041386610ace565b6040518263ffffffff1660e01b815260040161043191815260200190565b602060405180830381865afa15801561044e573d6000803e3d6000fd5b505050506040513d601f19601f820116820180604052508101906104729190610f82565b90508063ffffffff1660000361049d57836040516375860f7f60e11b815260040161034f9190610ebb565b60007f00000000000000000000000000000000000000000000000000000000000000006001600160a01b031663bd02d0f56104d787610b50565b6040518263ffffffff1660e01b81526004016104f591815260200190565b602060405180830381865afa158015610512573d6000803e3d6000fd5b505050506040513d601f19601f820116820180604052508101906105369190610f82565b90508060000361055b5784604051636fd32f9560e01b815260040161034f9190610ebb565b60007f00000000000000000000000000000000000000000000000000000000000000006001600160a01b0316637ae1cfca61059588610b90565b6040518263ffffffff1660e01b81526004016105b391815260200190565b602060405180830381865afa1580156105d0573d6000803e3d6000fd5b505050506040513d601f19601f820116820180604052508101906105f49190610fbc565b905060007f00000000000000000000000000000000000000000000000000000000000000006001600160a01b031663604387417f00000000000000000000000000000000000000000000000000000000000000006001600160a01b031663bac12f876040518163ffffffff1660e01b8152600401602060405180830381865afa158015610685573d6000803e3d6000fd5b505050506040513d601f19601f820116820180604052508101906106a99190610f82565b88886040518463ffffffff1660e01b81526004016106c8929190610fde565b60006040518083038185885af11580156106e6573d6000803e3d6000fd5b50505050506040513d6000823e601f3d908101601f1916820160405261070f919081019061120e565b6001600160a01b03891660009081526020819052604090206003015481519193506001600160401b03909116101590506107975780516001600160a01b0388166000818152602081905260409081902060030154905163dab4498d60e01b815260048101929092526001600160401b039092166024820152604481019190915260640161034f565b60005b816040015151811015610ab2576000826040015182815181106107bf576107bf6112c7565b602002602001015190508563ffffffff16816020015163ffffffff1603610aa957604051631b68a58f60e21b815260009073__$e46e22debf2ba8ee4dca6ea6e47ac3b0dc$__90636da2963c9061081a9085906004016112dd565b602060405180830381865af4158015610837573d6000803e3d6000fd5b505050506040513d601f19601f8201168201806040525081019061085b91906113c7565b905060008160070b121561088957898160070b604051635f328a5b60e11b815260040161034f9291906113e2565b604051631d784ead60e21b815260009073__$e46e22debf2ba8ee4dca6ea6e47ac3b0dc$__906375e13ab4906108c39086906004016112dd565b602060405180830381865af41580156108e0573d6000803e3d6000fd5b505050506040513d601f19601f8201168201806040525081019061090491906113c7565b905060008160070b1215610932578a8160070b604051635f328a5b60e11b815260040161034f9291906113e2565b6000610954826001600160401b03168968327cb2734119d3b7a9601e1b610bce565b90506000610978846001600160401b03168a68327cb2734119d3b7a9601e1b610bce565b905087156109b5578161099868327cb2734119d3b7a9601e1b8084610bce565b92506109b168327cb2734119d3b7a9601e1b8083610bce565b9150505b6040518060a001604052808e6001600160a01b0316815260200183815260200182815260200188600001516001600160401b03168152602001306001600160a01b03168152506000808f6001600160a01b03166001600160a01b0316815260200190815260200160002060008201518160000160006101000a8154816001600160a01b0302191690836001600160a01b0316021790555060208201518160010155604082015181600201556060820151816003015560808201518160040160006101000a8154816001600160a01b0302191690836001600160a01b0316021790555090505050505050505050505050505050565b5060010161079a565b5086604051633f2de87160e11b815260040161034f9190610ebb565b6000604051602001610b06906020808252601290820152711416551217d31056915497d191515117d25160721b604082015260600190565b60408051601f198184030181528282528051602091820120908301526001600160a01b03841690820152606001604051602081830303815290604052805190602001209050919050565b6000604051602001610b06906020808252601a9082015279282caa242fa620ad22a92fa322a2a22fa6aaa62a24a82624a2a960311b604082015260600190565b6000604051602001610b06906020808252601890820152771416551217d31056915497d191515117d25395915495115160421b604082015260600190565b6000610bdb848484610be5565b90505b9392505050565b6000808060001985870985870292508281108382030391505080600003610c1f57838281610c1557610c156113fb565b0492505050610bde565b808411610c665760405162461bcd60e51b81526020600482015260156024820152744d6174683a206d756c446976206f766572666c6f7760581b604482015260640161034f565b60008486880960026001871981018816978890046003810283188082028403028082028403028082028403028082028403028082028403029081029092039091026000889003889004909101858311909403939093029303949094049190911702949350505050565b6040518060a0016040528060006001600160a01b0316815260200160008152602001600081526020016000815260200160006001600160a01b031681525090565b80356001600160a01b0381168114610d2757600080fd5b919050565b634e487b7160e01b600052604160045260246000fd5b604051606081016001600160401b0381118282101715610d6457610d64610d2c565b60405290565b60405161016081016001600160401b0381118282101715610d6457610d64610d2c565b604051601f8201601f191681016001600160401b0381118282101715610db557610db5610d2c565b604052919050565b60006001600160401b03821115610dd657610dd6610d2c565b50601f01601f191660200190565b60008060408385031215610df757600080fd5b610e0083610d10565b915060208301356001600160401b03811115610e1b57600080fd5b8301601f81018513610e2c57600080fd5b8035610e3f610e3a82610dbd565b610d8d565b818152866020838501011115610e5457600080fd5b816020840160208301376000602083830101528093505050509250929050565b80516001600160a01b03908116835260208083015190840152604080830151908401526060808301519084015260809182015116910152565b60a0810161035c8284610e74565b6001600160a01b0391909116815260200190565b600060208284031215610ee157600080fd5b610bde82610d10565b821515815260c08101610bde6020830184610e74565b600080600060408486031215610f1557600080fd5b610f1e84610d10565b925060208401356001600160401b0380821115610f3a57600080fd5b818601915086601f830112610f4e57600080fd5b813581811115610f5d57600080fd5b876020828501011115610f6f57600080fd5b6020830194508093505050509250925092565b600060208284031215610f9457600080fd5b5051919050565b8181038181111561035c57634e487b7160e01b600052601160045260246000fd5b600060208284031215610fce57600080fd5b81518015158114610bde57600080fd5b60208152816020820152818360408301376000818301604090810191909152601f909201601f19160101919050565b80516001600160401b0381168114610d2757600080fd5b805163ffffffff81168114610d2757600080fd5b8051600781900b8114610d2757600080fd5b805161ffff81168114610d2757600080fd5b8051600181900b8114610d2757600080fd5b6000606080838503121561108157600080fd5b611089610d42565b91506110948361100d565b8252602080840151600581106110a957600080fd5b838201526040848101516001600160401b03808211156110c857600080fd5b818701915087601f8301126110dc57600080fd5b8151818111156110ee576110ee610d2c565b6110fc858260051b01610d8d565b818152858101925061016091820284018601918a83111561111c57600080fd5b938601935b828510156111fb5780858c0312156111395760008081fd5b611141610d6a565b85518152611150888701611024565b8882015261115f878701611038565b8782015261116e89870161104a565b89820152608061117f81880161105c565b9082015260a0611190878201611038565b9082015260c06111a1878201611038565b9082015260e06111b287820161100d565b908201526101006111c4878201611038565b908201526101206111d687820161100d565b908201526101406111e887820161100d565b9082015284529384019392860192611121565b5060408801525094979650505050505050565b6000806040838503121561122157600080fd5b82516001600160401b038082111561123857600080fd5b818501915085601f83011261124c57600080fd5b815161125a610e3a82610dbd565b8181526020888184870101111561127057600080fd5b60005b8381101561128e578581018201518382018301528101611273565b506000818484010152819650808801519450505050808211156112b057600080fd5b506112bd8582860161106e565b9150509250929050565b634e487b7160e01b600052603260045260246000fd5b815181526020808301516101608301916112fe9084018263ffffffff169052565b506040830151611313604084018260070b9052565b506060830151611329606084018261ffff169052565b50608083015161133e608084018260010b9052565b5060a083015161135360a084018260070b9052565b5060c083015161136860c084018260070b9052565b5060e083015161138360e08401826001600160401b03169052565b50610100808401516113998285018260070b9052565b5050610120838101516001600160401b03908116918401919091526101409384015116929091019190915290565b6000602082840312156113d957600080fd5b610bde82611038565b6001600160a01b03929092168252602082015260400190565b634e487b7160e01b600052601260045260246000fdfea26469706673582212208124bd2c63d765eeb30ffca1df4926e8ab2f3ebd436dbe8f45aae66bedfebccb64736f6c63430008180033",
  "libraries": {
    "PythLazerLib": "0x293404C813Da5d046ebd3500D619160ce553eb7a"
  },
  "devdoc": {
    "kind": "dev",
    "methods": {},
    "version": 1
  },
  "userdoc": {
    "kind": "user",
    "methods": {},
    "version": 1
  },
  "storageLayout": {
    "storage": [
      {
        "astId": 77282,
        "contract": "contracts/oracle/PythLazerFeedProvider.sol:PythLazerFeedProvider",
        "label": "storedPrices",
        "offset": 0,
        "slot": "0",
        "type": "t_mapping(t_address,t_struct(ValidatedPrice)77169_storage)"
      }
    ],
    "types": {
      "t_address": {
        "encoding": "inplace",
        "label": "address",
        "numberOfBytes": "20"
      },
      "t_mapping(t_address,t_struct(ValidatedPrice)77169_storage)": {
        "encoding": "mapping",
        "key": "t_address",
        "label": "mapping(address => struct OracleUtils.ValidatedPrice)",
        "numberOfBytes": "32",
        "value": "t_struct(ValidatedPrice)77169_storage"
      },
      "t_struct(ValidatedPrice)77169_storage": {
        "encoding": "inplace",
        "label": "struct OracleUtils.ValidatedPrice",
        "members": [
          {
            "astId": 77160,
            "contract": "contracts/oracle/PythLazerFeedProvider.sol:PythLazerFeedProvider",
            "label": "token",
            "offset": 0,
            "slot": "0",
            "type": "t_address"
          },
          {
            "astId": 77162,
            "contract": "contracts/oracle/PythLazerFeedProvider.sol:PythLazerFeedProvider",
            "label": "min",
            "offset": 0,
            "slot": "1",
            "type": "t_uint256"
          },
          {
            "astId": 77164,
            "contract": "contracts/oracle/PythLazerFeedProvider.sol:PythLazerFeedProvider",
            "label": "max",
            "offset": 0,
            "slot": "2",
            "type": "t_uint256"
          },
          {
            "astId": 77166,
            "contract": "contracts/oracle/PythLazerFeedProvider.sol:PythLazerFeedProvider",
            "label": "timestamp",
            "offset": 0,
            "slot": "3",
            "type": "t_uint256"
          },
          {
            "astId": 77168,
            "contract": "contracts/oracle/PythLazerFeedProvider.sol:PythLazerFeedProvider",
            "label": "provider",
            "offset": 0,
            "slot": "4",
            "type": "t_address"
          }
        ],
        "numberOfBytes": "160"
      },
      "t_uint256": {
        "encoding": "inplace",
        "label": "uint256",
        "numberOfBytes": "32"
      }
    }
  }
}