{
  "address": "0xc59f83749Ab34e45a2b29fbd533266E3d7209FE5",
  "abi": [
    {
      "inputs": [
        {
          "internalType": "contract RoleStore",
          "name": "_roleStore",
          "type": "address"
        },
        {
          "internalType": "contract DataStore",
          "name": "_dataStore",
          "type": "address"
        },
        {
          "internalType": "contract EventEmitter",
          "name": "_eventEmitter",
          "type": "address"
        },
        {
          "internalType": "contract OracleStore",
          "name": "_oracleStore",
          "type": "address"
        },
        {
          "internalType": "uint256",
          "name": "_timelockDelay",
          "type": "uint256"
        }
      ],
      "stateMutability": "nonpayable",
      "type": "constructor"
    },
    {
      "inputs": [],
      "name": "ActionAlreadySignalled",
      "type": "error"
    },
    {
      "inputs": [],
      "name": "ActionNotSignalled",
      "type": "error"
    },
    {
      "inputs": [
        {
          "internalType": "bytes32",
          "name": "baseKey",
          "type": "bytes32"
        },
        {
          "internalType": "uint256",
          "name": "value",
          "type": "uint256"
        }
      ],
      "name": "ConfigValueExceedsAllowedRange",
      "type": "error"
    },
    {
      "inputs": [
        {
          "internalType": "address",
          "name": "receiver",
          "type": "address"
        }
      ],
      "name": "InvalidFeeReceiver",
      "type": "error"
    },
    {
      "inputs": [
        {
          "internalType": "address",
          "name": "receiver",
          "type": "address"
        }
      ],
      "name": "InvalidOracleSigner",
      "type": "error"
    },
    {
      "inputs": [
        {
          "internalType": "uint256",
          "name": "timelockDelay",
          "type": "uint256"
        }
      ],
      "name": "InvalidTimelockDelay",
      "type": "error"
    },
    {
      "inputs": [
        {
          "internalType": "uint256",
          "name": "timelockDelay",
          "type": "uint256"
        }
      ],
      "name": "MaxTimelockDelayExceeded",
      "type": "error"
    },
    {
      "inputs": [
        {
          "internalType": "uint256",
          "name": "signalTime",
          "type": "uint256"
        }
      ],
      "name": "SignalTimeNotYetPassed",
      "type": "error"
    },
    {
      "inputs": [
        {
          "internalType": "address",
          "name": "msgSender",
          "type": "address"
        },
        {
          "internalType": "string",
          "name": "role",
          "type": "string"
        }
      ],
      "name": "Unauthorized",
      "type": "error"
    },
    {
      "inputs": [],
      "name": "MAX_TIMELOCK_DELAY",
      "outputs": [
        {
          "internalType": "uint256",
          "name": "",
          "type": "uint256"
        }
      ],
      "stateMutability": "view",
      "type": "function"
    },
    {
      "inputs": [
        {
          "internalType": "address",
          "name": "account",
          "type": "address"
        }
      ],
      "name": "addOracleSignerAfterSignal",
      "outputs": [],
      "stateMutability": "nonpayable",
      "type": "function"
    },
    {
      "inputs": [
        {
          "internalType": "bytes32",
          "name": "actionKey",
          "type": "bytes32"
        }
      ],
      "name": "cancelAction",
      "outputs": [],
      "stateMutability": "nonpayable",
      "type": "function"
    },
    {
      "inputs": [],
      "name": "dataStore",
      "outputs": [
        {
          "internalType": "contract DataStore",
          "name": "",
          "type": "address"
        }
      ],
      "stateMutability": "view",
      "type": "function"
    },
    {
      "inputs": [],
      "name": "eventEmitter",
      "outputs": [
        {
          "internalType": "contract EventEmitter",
          "name": "",
          "type": "address"
        }
      ],
      "stateMutability": "view",
      "type": "function"
    },
    {
      "inputs": [
        {
          "internalType": "address",
          "name": "account",
          "type": "address"
        },
        {
          "internalType": "bytes32",
          "name": "roleKey",
          "type": "bytes32"
        }
      ],
      "name": "grantRoleAfterSignal",
      "outputs": [],
      "stateMutability": "nonpayable",
      "type": "function"
    },
    {
      "inputs": [
        {
          "internalType": "uint256",
          "name": "_timelockDelay",
          "type": "uint256"
        }
      ],
      "name": "increaseTimelockDelay",
      "outputs": [],
      "stateMutability": "nonpayable",
      "type": "function"
    },
    {
      "inputs": [
        {
          "internalType": "bytes[]",
          "name": "data",
          "type": "bytes[]"
        }
      ],
      "name": "multicall",
      "outputs": [
        {
          "internalType": "bytes[]",
          "name": "results",
          "type": "bytes[]"
        }
      ],
      "stateMutability": "nonpayable",
      "type": "function"
    },
    {
      "inputs": [],
      "name": "oracleStore",
      "outputs": [
        {
          "internalType": "contract OracleStore",
          "name": "",
          "type": "address"
        }
      ],
      "stateMutability": "view",
      "type": "function"
    },
    {
      "inputs": [
        {
          "internalType": "bytes32",
          "name": "",
          "type": "bytes32"
        }
      ],
      "name": "pendingActions",
      "outputs": [
        {
          "internalType": "uint256",
          "name": "",
          "type": "uint256"
        }
      ],
      "stateMutability": "view",
      "type": "function"
    },
    {
      "inputs": [
        {
          "internalType": "address",
          "name": "account",
          "type": "address"
        }
      ],
      "name": "removeOracleSignerAfterSignal",
      "outputs": [],
      "stateMutability": "nonpayable",
      "type": "function"
    },
    {
      "inputs": [
        {
          "internalType": "address",
          "name": "account",
          "type": "address"
        },
        {
          "internalType": "bytes32",
          "name": "roleKey",
          "type": "bytes32"
        }
      ],
      "name": "revokeRole",
      "outputs": [],
      "stateMutability": "nonpayable",
      "type": "function"
    },
    {
      "inputs": [
        {
          "internalType": "address",
          "name": "account",
          "type": "address"
        },
        {
          "internalType": "bytes32",
          "name": "roleKey",
          "type": "bytes32"
        }
      ],
      "name": "revokeRoleAfterSignal",
      "outputs": [],
      "stateMutability": "nonpayable",
      "type": "function"
    },
    {
      "inputs": [],
      "name": "roleStore",
      "outputs": [
        {
          "internalType": "contract RoleStore",
          "name": "",
          "type": "address"
        }
      ],
      "stateMutability": "view",
      "type": "function"
    },
    {
      "inputs": [
        {
          "internalType": "address",
          "name": "provider",
          "type": "address"
        },
        {
          "internalType": "bool",
          "name": "value",
          "type": "bool"
        }
      ],
      "name": "setAtomicOracleProviderAfterSignal",
      "outputs": [],
      "stateMutability": "nonpayable",
      "type": "function"
    },
    {
      "inputs": [
        {
          "internalType": "address",
          "name": "token",
          "type": "address"
        },
        {
          "internalType": "bytes32",
          "name": "feedId",
          "type": "bytes32"
        },
        {
          "internalType": "bool",
          "name": "dataStreamInverted",
          "type": "bool"
        },
        {
          "internalType": "uint256",
          "name": "dataStreamMultiplier",
          "type": "uint256"
        },
        {
          "internalType": "uint256",
          "name": "dataStreamSpreadReductionFactor",
          "type": "uint256"
        }
      ],
      "name": "setDataStreamAfterSignal",
      "outputs": [],
      "stateMutability": "nonpayable",
      "type": "function"
    },
    {
      "inputs": [
        {
          "internalType": "address",
          "name": "account",
          "type": "address"
        }
      ],
      "name": "setFeeReceiverAfterSignal",
      "outputs": [],
      "stateMutability": "nonpayable",
      "type": "function"
    },
    {
      "inputs": [
        {
          "internalType": "address",
          "name": "provider",
          "type": "address"
        },
        {
          "internalType": "bool",
          "name": "value",
          "type": "bool"
        }
      ],
      "name": "setOracleProviderEnabled",
      "outputs": [],
      "stateMutability": "nonpayable",
      "type": "function"
    },
    {
      "inputs": [
        {
          "internalType": "address",
          "name": "provider",
          "type": "address"
        },
        {
          "internalType": "bool",
          "name": "value",
          "type": "bool"
        }
      ],
      "name": "setOracleProviderEnabledAfterSignal",
      "outputs": [],
      "stateMutability": "nonpayable",
      "type": "function"
    },
    {
      "inputs": [
        {
          "internalType": "address",
          "name": "token",
          "type": "address"
        },
        {
          "internalType": "address",
          "name": "provider",
          "type": "address"
        }
      ],
      "name": "setOracleProviderForTokenAfterSignal",
      "outputs": [],
      "stateMutability": "nonpayable",
      "type": "function"
    },
    {
      "inputs": [
        {
          "internalType": "address",
          "name": "token",
          "type": "address"
        },
        {
          "internalType": "address",
          "name": "priceFeed",
          "type": "address"
        },
        {
          "internalType": "uint256",
          "name": "priceFeedMultiplier",
          "type": "uint256"
        },
        {
          "internalType": "uint256",
          "name": "priceFeedHeartbeatDuration",
          "type": "uint256"
        },
        {
          "internalType": "uint256",
          "name": "stablePrice",
          "type": "uint256"
        }
      ],
      "name": "setPriceFeedAfterSignal",
      "outputs": [],
      "stateMutability": "nonpayable",
      "type": "function"
    },
    {
      "inputs": [
        {
          "internalType": "address",
          "name": "token",
          "type": "address"
        },
        {
          "internalType": "bytes32",
          "name": "pythLazerFeedId",
          "type": "bytes32"
        },
        {
          "internalType": "bool",
          "name": "pythLazerFeedInverted",
          "type": "bool"
        },
        {
          "internalType": "uint256",
          "name": "pythLazerFeedMultiplier",
          "type": "uint256"
        }
      ],
      "name": "setPythLazerFeedAfterSignal",
      "outputs": [],
      "stateMutability": "nonpayable",
      "type": "function"
    },
    {
      "inputs": [
        {
          "internalType": "address",
          "name": "account",
          "type": "address"
        }
      ],
      "name": "signalAddOracleSigner",
      "outputs": [],
      "stateMutability": "nonpayable",
      "type": "function"
    },
    {
      "inputs": [
        {
          "internalType": "address",
          "name": "account",
          "type": "address"
        },
        {
          "internalType": "bytes32",
          "name": "roleKey",
          "type": "bytes32"
        }
      ],
      "name": "signalGrantRole",
      "outputs": [],
      "stateMutability": "nonpayable",
      "type": "function"
    },
    {
      "inputs": [
        {
          "internalType": "address",
          "name": "account",
          "type": "address"
        }
      ],
      "name": "signalRemoveOracleSigner",
      "outputs": [],
      "stateMutability": "nonpayable",
      "type": "function"
    },
    {
      "inputs": [
        {
          "internalType": "address",
          "name": "account",
          "type": "address"
        },
        {
          "internalType": "bytes32",
          "name": "roleKey",
          "type": "bytes32"
        }
      ],
      "name": "signalRevokeRole",
      "outputs": [],
      "stateMutability": "nonpayable",
      "type": "function"
    },
    {
      "inputs": [
        {
          "internalType": "address",
          "name": "provider",
          "type": "address"
        },
        {
          "internalType": "bool",
          "name": "value",
          "type": "bool"
        }
      ],
      "name": "signalSetAtomicOracleProvider",
      "outputs": [],
      "stateMutability": "nonpayable",
      "type": "function"
    },
    {
      "inputs": [
        {
          "internalType": "address",
          "name": "token",
          "type": "address"
        },
        {
          "internalType": "bytes32",
          "name": "feedId",
          "type": "bytes32"
        },
        {
          "internalType": "bool",
          "name": "dataStreamInverted",
          "type": "bool"
        },
        {
          "internalType": "uint256",
          "name": "dataStreamMultiplier",
          "type": "uint256"
        },
        {
          "internalType": "uint256",
          "name": "dataStreamSpreadReductionFactor",
          "type": "uint256"
        }
      ],
      "name": "signalSetDataStream",
      "outputs": [],
      "stateMutability": "nonpayable",
      "type": "function"
    },
    {
      "inputs": [
        {
          "internalType": "address",
          "name": "account",
          "type": "address"
        }
      ],
      "name": "signalSetFeeReceiver",
      "outputs": [],
      "stateMutability": "nonpayable",
      "type": "function"
    },
    {
      "inputs": [
        {
          "internalType": "address",
          "name": "provider",
          "type": "address"
        },
        {
          "internalType": "bool",
          "name": "value",
          "type": "bool"
        }
      ],
      "name": "signalSetOracleProviderEnabled",
      "outputs": [],
      "stateMutability": "nonpayable",
      "type": "function"
    },
    {
      "inputs": [
        {
          "internalType": "address",
          "name": "token",
          "type": "address"
        },
        {
          "internalType": "address",
          "name": "provider",
          "type": "address"
        }
      ],
      "name": "signalSetOracleProviderForToken",
      "outputs": [],
      "stateMutability": "nonpayable",
      "type": "function"
    },
    {
      "inputs": [
        {
          "internalType": "address",
          "name": "token",
          "type": "address"
        },
        {
          "internalType": "address",
          "name": "priceFeed",
          "type": "address"
        },
        {
          "internalType": "uint256",
          "name": "priceFeedMultiplier",
          "type": "uint256"
        },
        {
          "internalType": "uint256",
          "name": "priceFeedHeartbeatDuration",
          "type": "uint256"
        },
        {
          "internalType": "uint256",
          "name": "stablePrice",
          "type": "uint256"
        }
      ],
      "name": "signalSetPriceFeed",
      "outputs": [],
      "stateMutability": "nonpayable",
      "type": "function"
    },
    {
      "inputs": [
        {
          "internalType": "address",
          "name": "token",
          "type": "address"
        },
        {
          "internalType": "bytes32",
          "name": "pythLazerFeedId",
          "type": "bytes32"
        },
        {
          "internalType": "bool",
          "name": "pythLazerFeedInverted",
          "type": "bool"
        },
        {
          "internalType": "uint256",
          "name": "pythLazerFeedMultiplier",
          "type": "uint256"
        }
      ],
      "name": "signalSetPythLazerFeed",
      "outputs": [],
      "stateMutability": "nonpayable",
      "type": "function"
    },
    {
      "inputs": [],
      "name": "timelockDelay",
      "outputs": [
        {
          "internalType": "uint256",
          "name": "",
          "type": "uint256"
        }
      ],
      "stateMutability": "view",
      "type": "function"
    }
  ],
  "transactionHash": "0x689914ad03c1a7a7831fb5f5652c709cc1282cbfe1034d36afe3e1eaf548001c",
  "args": [
    "0x2b76Cf1aEc8972a12B228e69d53efc9a4e486Dd8",
    "0xBaD049d5FedE7Bd9022F7E750B982349fE17e83E",
    "0x1E4cBc2ea12B190D6222D568151b5e708e1477F8",
    "0x9899d456E49d7fA7D0dD9408c6D5a6AeAf3259cd",
    86400
  ],
  "numDeployments": 1,
  "solcInputHash": "fdd310d3b9d2ce021bf11fb7a9cec2ef",
  "bytecode": "0x6101006040523480156200001257600080fd5b5060405162005bd238038062005bd28339810160408190526200003591620000c5565b600160008190556001600160a01b0380871660805285811660a05284811660c052831660e0528190556200006862000073565b505050505062000139565b620697806001541115620000aa57600154604051633ebd9bc360e21b8152600401620000a191815260200190565b60405180910390fd5b565b6001600160a01b0381168114620000c257600080fd5b50565b600080600080600060a08688031215620000de57600080fd5b8551620000eb81620000ac565b6020870151909550620000fe81620000ac565b60408701519094506200011181620000ac565b60608701519093506200012481620000ac565b80925050608086015190509295509295909350565b60805160a05160c05160e05161590f620002c36000396000818161021e01528181610cb401526124f401526000818161035e015281816105bf015281816107fa015281816109e201528181610bd301528181610d7401528181610ef7015281816110a0015281816112790152818161147b0152818161158d015281816116b101528181611b1301528181611c7601528181612104015281816122270152818161244b015281816125b4015281816126d80152818161289401528181612a3801528181612c0201528181612cf4015281816131a0015281816132d00152818161355b0152613bef0152600081816102c501528181610dc701528181610f830152818161134b01528181611743015281816117dd015281816118770152818161191101528181611d0901528181611da301528181611e3d0152818161276601528181612ad201528181612dc201528181612e5c01528181612ef60152612f90015260008181610265015281816108e001528181610ad101528181612936015261331c015261590f6000f3fe608060405234801561001057600080fd5b50600436106101965760003560e01c80630f43905d1461019b5780630fe29bbc146101b05780630ffc3cf6146101c3578063208dd1ff146101d65780632a083ca3146101e95780632d6b4cc614610206578063392bf7f61461021957806349c73bca1461024d5780634a4a7b04146102605780635077e24214610287578063557971b21461029a5780635bb70a20146102ad578063660d0d67146102c057806369bc0f3b146102e7578063728ca574146102fa57806375fa19131461030d578063781cc3d3146103205780637c326db6146103335780638ef63c5c146103465780639ff78c3014610359578063a2f822ad14610380578063a9765cae14610393578063ac9650d8146103a6578063b6b9b02f146103c6578063bcb151e4146103d9578063c15ab4ec146103ec578063c4fe486c146103ff578063d59ba7e414610412578063d5b0083b14610425578063e30569e514610438578063eef09bad14610458578063f03278d414610461578063f111d90614610474578063f2ee937714610487575b600080fd5b6101ae6101a9366004614345565b61049a565b005b6101ae6101be366004614362565b610637565b6101ae6101d13660046143b3565b610876565b6101ae6101e43660046143b3565b610a5b565b6101f36206978081565b6040519081526020015b60405180910390f35b6101ae610214366004614345565b610c45565b6102407f000000000000000000000000000000000000000000000000000000000000000081565b6040516101fd91906143df565b6101ae61025b366004614401565b610dab565b6102407f000000000000000000000000000000000000000000000000000000000000000081565b6101ae61029536600461443a565b610f2c565b6101ae6102a8366004614468565b6110d5565b6101ae6102bb366004614401565b6112f4565b6102407f000000000000000000000000000000000000000000000000000000000000000081565b6101ae6102f5366004614345565b6114b0565b6101ae6103083660046143b3565b6115c4565b6101ae61031b366004614362565b6116e8565b6101ae61032e3660046144b0565b611b4a565b6101ae61034136600461443a565b611b9c565b6101ae610354366004614468565b611cab565b6102407f000000000000000000000000000000000000000000000000000000000000000081565b6101ae61038e3660046144c9565b611edd565b6101ae6103a13660046143b3565b61213b565b6103b96103b436600461451b565b61225e565b6040516101fd9190614639565b6101ae6103d4366004614345565b612372565b6101ae6103e7366004614345565b612482565b6101ae6103fa366004614401565b6125eb565b6101ae61040d366004614345565b61270d565b6101ae6104203660046143b3565b6128cb565b6101ae610433366004614401565b612a6f565b6101f36104463660046144b0565b60026020526000908152604090205481565b6101f360015481565b6101ae61046f3660046144b0565b612c37565b6101ae6104823660046144c9565b612d66565b6101ae610495366004614401565b6131d7565b6104ee6040516020016104ac9061464c565b604051602081830303815290604052805190602001206040518060400160405280600e81526020016d2a24a6a2a627a1a5afa0a226a4a760911b815250613305565b6104f66133b5565b6001600160a01b038116610528578060405163c1b14c9160e01b815260040161051f91906143df565b60405180910390fd5b60006105338261340e565b9050610566816040518060400160405280600f81526020016e30b23227b930b1b632a9b4b3b732b960891b815250613461565b61056e61423f565b805161057b9060016135c9565b6040805180820190915260078152661858d8dbdd5b9d60ca1b602082015281516105a8916000908661362e565b604051630937807960e21b81526001600160a01b037f000000000000000000000000000000000000000000000000000000000000000016906324de01e4906105f69085908590600401614f54565b600060405180830381600087803b15801561061057600080fd5b505af1158015610624573d6000803e3d6000fd5b5050505050506106346001600055565b50565b6106496040516020016104ac9061464c565b6106516133b5565b6000610660868686868661368b565b9050610690816040518060400160405280600c81526020016b1cd95d141c9a58d95199595960a21b815250613461565b61069861423f565b80516106a59060026135c9565b6040805180820190915260058152643a37b5b2b760d91b602082015281516106d0916000908a61362e565b6040805180820190915260098152681c1c9a58d95199595960ba1b602082015281516106ff916001908961362e565b602081015161070f9060036135c9565b610756600060405180604001604052806013815260200172383934b1b2a332b2b226bab63a34b83634b2b960691b815250878460200151613701909392919063ffffffff16565b6107a460016040518060400160405280601a815260200179383934b1b2a332b2b22432b0b93a3132b0ba223ab930ba34b7b760311b815250868460200151613701909392919063ffffffff16565b6107e360026040518060400160405280600b81526020016a737461626c65507269636560a81b815250858460200151613701909392919063ffffffff16565b604051630937807960e21b81526001600160a01b037f000000000000000000000000000000000000000000000000000000000000000016906324de01e4906108319085908590600401614fa1565b600060405180830381600087803b15801561084b57600080fd5b505af115801561085f573d6000803e3d6000fd5b50505050505061086f6001600055565b5050505050565b6108886040516020016104ac9061464c565b6108906133b5565b600061089c8383613754565b90506108c981604051806040016040528060098152602001686772616e74526f6c6560b81b8152506137a9565b604051632ac9d0b760e21b81526001600160a01b037f0000000000000000000000000000000000000000000000000000000000000000169063ab2742dc906109179086908690600401614fe3565b600060405180830381600087803b15801561093157600080fd5b505af1158015610945573d6000803e3d6000fd5b5050505061095161423f565b805161095e9060016135c9565b6040805180820190915260078152661858d8dbdd5b9d60ca1b6020820152815161098b916000908761362e565b608081015161099b9060016135c9565b604080518082019091526007815266726f6c654b657960c81b602082015260808201516109cb9160009086613701565b604051630937807960e21b81526001600160a01b037f000000000000000000000000000000000000000000000000000000000000000016906324de01e490610a199085908590600401614ffc565b600060405180830381600087803b158015610a3357600080fd5b505af1158015610a47573d6000803e3d6000fd5b505050505050610a576001600055565b5050565b610ab2604051602001610a6d90615035565b604051602081830303815290604052805190602001206040518060400160405280601181526020017054494d454c4f434b5f4d554c544953494760781b815250613305565b610aba6133b5565b60405163208dd1ff60e01b81526001600160a01b037f0000000000000000000000000000000000000000000000000000000000000000169063208dd1ff90610b089085908590600401614fe3565b600060405180830381600087803b158015610b2257600080fd5b505af1158015610b36573d6000803e3d6000fd5b50505050610b4261423f565b8051610b4f9060016135c9565b6040805180820190915260078152661858d8dbdd5b9d60ca1b60208201528151610b7c916000908661362e565b6080810151610b8c9060016135c9565b604080518082019091526007815266726f6c654b657960c81b60208201526080820151610bbc9160009085613701565b60405163483624fb60e11b81526001600160a01b037f0000000000000000000000000000000000000000000000000000000000000000169063906c49f690610c0890849060040161507d565b600060405180830381600087803b158015610c2257600080fd5b505af1158015610c36573d6000803e3d6000fd5b5050505050610a576001600055565b610c576040516020016104ac9061464c565b610c5f6133b5565b6000610c6a8261340e565b9050610c9d816040518060400160405280600f81526020016e30b23227b930b1b632a9b4b3b732b960891b8152506137a9565b6040516375896b0f60e11b81526001600160a01b037f0000000000000000000000000000000000000000000000000000000000000000169063eb12d61e90610ce99085906004016143df565b600060405180830381600087803b158015610d0357600080fd5b505af1158015610d17573d6000803e3d6000fd5b50505050610d2361423f565b8051610d309060016135c9565b6040805180820190915260078152661858d8dbdd5b9d60ca1b60208201528151610d5d916000908661362e565b604051630937807960e21b81526001600160a01b037f000000000000000000000000000000000000000000000000000000000000000016906324de01e4906105f690859085906004016150a1565b610dbd604051602001610a6d90615035565b610dc56133b5565b7f00000000000000000000000000000000000000000000000000000000000000006001600160a01b031663abfdcced610dfd846137bc565b836040518363ffffffff1660e01b8152600401610e1b9291906150e0565b6020604051808303816000875af1158015610e3a573d6000803e3d6000fd5b505050506040513d601f19601f82011682018060405250810190610e5e91906150f0565b50610e6761423f565b8051610e749060016135c9565b604080518082019091526008815267383937bb34b232b960c11b60208201528151610ea2916000908661362e565b6060810151610eb29060016135c9565b60408051808201909152600581526476616c756560d81b60208201526060820151610ee09160009085613824565b60405163483624fb60e11b81526001600160a01b037f0000000000000000000000000000000000000000000000000000000000000000169063906c49f690610c0890849060040161510d565b610f3e6040516020016104ac9061464c565b610f466133b5565b6000610f528383613879565b9050610f818160405180604001604052806019815260200160008051602061587a8339815191528152506137a9565b7f00000000000000000000000000000000000000000000000000000000000000006001600160a01b031663ca446dd9610fb9856138b9565b846040518363ffffffff1660e01b8152600401610fd792919061514f565b6020604051808303816000875af1158015610ff6573d6000803e3d6000fd5b505050506040513d601f19601f8201168201806040525081019061101a9190615166565b5061102361423f565b80516110309060026135c9565b6040805180820190915260058152643a37b5b2b760d91b6020820152815161105b916000908761362e565b604080518082019091526008815267383937bb34b232b960c11b60208201528151611089916001908661362e565b60405163483624fb60e11b81526001600160a01b037f0000000000000000000000000000000000000000000000000000000000000000169063906c49f690610a19908490600401615183565b6110e76040516020016104ac9061464c565b6110ef6133b5565b60006110fd858585856138f8565b9050611131816040518060400160405280601081526020016f1cd95d141e5d1a13185e995c9199595960821b815250613461565b61113961423f565b80516111469060016135c9565b6040805180820190915260058152643a37b5b2b760d91b60208201528151611171916000908961362e565b60808101516111819060016135c9565b60408051808201909152600f81526e1c1e5d1a13185e995c919959591259608a1b602082015260808201516111b99160009088613701565b60608101516111c99060016135c9565b6040805180820190915260158152741c1e5d1a13185e995c91995959125b9d995c9d1959605a1b602082015260608201516112079160009087613824565b60208101516112179060026135c9565b611262600060405180604001604052806017815260200176383cba342630bd32b92332b2b226bab63a34b83634b2b960491b815250858460200151613701909392919063ffffffff16565b604051630937807960e21b81526001600160a01b037f000000000000000000000000000000000000000000000000000000000000000016906324de01e4906112b090859085906004016151c6565b600060405180830381600087803b1580156112ca57600080fd5b505af11580156112de573d6000803e3d6000fd5b5050505050506112ee6001600055565b50505050565b6113066040516020016104ac9061464c565b61130e6133b5565b600061131a8383613967565b90506113498160405180604001604052806018815260200160008051602061589a8339815191528152506137a9565b7f00000000000000000000000000000000000000000000000000000000000000006001600160a01b031663abfdcced611381856137bc565b846040518363ffffffff1660e01b815260040161139f9291906150e0565b6020604051808303816000875af11580156113be573d6000803e3d6000fd5b505050506040513d601f19601f820116820180604052508101906113e291906150f0565b506113eb61423f565b80516113f89060016135c9565b604080518082019091526008815267383937bb34b232b960c11b60208201528151611426916000908761362e565b60608101516114369060016135c9565b60408051808201909152600581526476616c756560d81b602082015260608201516114649160009086613824565b60405163483624fb60e11b81526001600160a01b037f0000000000000000000000000000000000000000000000000000000000000000169063906c49f690610a1990849060040161510d565b6114c26040516020016104ac9061464c565b6114ca6133b5565b6001600160a01b0381166114f3578060405163c1b14c9160e01b815260040161051f91906143df565b60006114fe826139a8565b905061153481604051806040016040528060128152602001713932b6b7bb32a7b930b1b632a9b4b3b732b960711b815250613461565b61153c61423f565b80516115499060016135c9565b6040805180820190915260078152661858d8dbdd5b9d60ca1b60208201528151611576916000908661362e565b604051630937807960e21b81526001600160a01b037f000000000000000000000000000000000000000000000000000000000000000016906324de01e4906105f69085908590600401615206565b6115d66040516020016104ac9061464c565b6115de6133b5565b60006115ea83836139e5565b9050611618816040518060400160405280600a8152602001697265766f6b65526f6c6560b01b815250613461565b61162061423f565b805161162d9060016135c9565b6040805180820190915260078152661858d8dbdd5b9d60ca1b6020820152815161165a916000908761362e565b608081015161166a9060016135c9565b604080518082019091526007815266726f6c654b657960c81b6020820152608082015161169a9160009086613701565b604051630937807960e21b81526001600160a01b037f000000000000000000000000000000000000000000000000000000000000000016906324de01e490610a19908590859060040161524e565b6116fa6040516020016104ac9061464c565b6117026133b5565b6000611711868686868661368b565b9050611741816040518060400160405280600c81526020016b1cd95d141c9a58d95199595960a21b8152506137a9565b7f00000000000000000000000000000000000000000000000000000000000000006001600160a01b031663ca446dd961177988613a21565b876040518363ffffffff1660e01b815260040161179792919061514f565b6020604051808303816000875af11580156117b6573d6000803e3d6000fd5b505050506040513d601f19601f820116820180604052508101906117da9190615166565b507f00000000000000000000000000000000000000000000000000000000000000006001600160a01b031663e2a4853a61181388613a51565b866040518363ffffffff1660e01b815260040161183192919061528e565b6020604051808303816000875af1158015611850573d6000803e3d6000fd5b505050506040513d601f19601f82011682018060405250810190611874919061529c565b507f00000000000000000000000000000000000000000000000000000000000000006001600160a01b031663e2a4853a6118ad88613a8c565b856040518363ffffffff1660e01b81526004016118cb92919061528e565b6020604051808303816000875af11580156118ea573d6000803e3d6000fd5b505050506040513d601f19601f8201168201806040525081019061190e919061529c565b507f00000000000000000000000000000000000000000000000000000000000000006001600160a01b031663e2a4853a61194788613acf565b846040518363ffffffff1660e01b815260040161196592919061528e565b6020604051808303816000875af1158015611984573d6000803e3d6000fd5b505050506040513d601f19601f820116820180604052508101906119a8919061529c565b506119b161423f565b80516119be9060026135c9565b6040805180820190915260058152643a37b5b2b760d91b602082015281516119e9916000908a61362e565b6040805180820190915260098152681c1c9a58d95199595960ba1b60208201528151611a18916001908961362e565b6020810151611a289060036135c9565b611a6f600060405180604001604052806013815260200172383934b1b2a332b2b226bab63a34b83634b2b960691b815250878460200151613701909392919063ffffffff16565b611abd60016040518060400160405280601a815260200179383934b1b2a332b2b22432b0b93a3132b0ba223ab930ba34b7b760311b815250868460200151613701909392919063ffffffff16565b611afc60026040518060400160405280600b81526020016a737461626c65507269636560a81b815250858460200151613701909392919063ffffffff16565b604051630937807960e21b81526001600160a01b037f000000000000000000000000000000000000000000000000000000000000000016906324de01e49061083190859085906004016152b5565b611b5c6040516020016104ac9061464c565b611b646133b5565b611b92816040518060400160405280600c81526020016b31b0b731b2b620b1ba34b7b760a11b815250613b01565b6106346001600055565b611bae6040516020016104ac9061464c565b611bb66133b5565b6000611bc28383613879565b9050611bf18160405180604001604052806019815260200160008051602061587a833981519152815250613461565b611bf961423f565b8051611c069060026135c9565b6040805180820190915260058152643a37b5b2b760d91b60208201528151611c31916000908761362e565b604080518082019091526008815267383937bb34b232b960c11b60208201528151611c5f916001908661362e565b60405163483624fb60e11b81526001600160a01b037f0000000000000000000000000000000000000000000000000000000000000000169063906c49f690610a199084906004016152f1565b611cbd6040516020016104ac9061464c565b611cc56133b5565b6000611cd3858585856138f8565b9050611d07816040518060400160405280601081526020016f1cd95d141e5d1a13185e995c9199595960821b8152506137a9565b7f00000000000000000000000000000000000000000000000000000000000000006001600160a01b0316634e91db08611d3f87613c26565b866040518363ffffffff1660e01b8152600401611d5d92919061528e565b6020604051808303816000875af1158015611d7c573d6000803e3d6000fd5b505050506040513d601f19601f82011682018060405250810190611da0919061529c565b507f00000000000000000000000000000000000000000000000000000000000000006001600160a01b031663abfdcced611dd987613c5e565b856040518363ffffffff1660e01b8152600401611df79291906150e0565b6020604051808303816000875af1158015611e16573d6000803e3d6000fd5b505050506040513d601f19601f82011682018060405250810190611e3a91906150f0565b507f00000000000000000000000000000000000000000000000000000000000000006001600160a01b031663e2a4853a611e7387613c9c565b846040518363ffffffff1660e01b8152600401611e9192919061528e565b6020604051808303816000875af1158015611eb0573d6000803e3d6000fd5b505050506040513d601f19601f82011682018060405250810190611ed4919061529c565b5061113961423f565b611eef6040516020016104ac9061464c565b611ef76133b5565b68327cb2734119d3b7a9601e1b811115611f4c57604051602001611f1a90615338565b6040516020818303038152906040528051906020012081604051635ebb87c960e01b815260040161051f92919061528e565b6000611f5b8686868686613cdc565b9050611f8c816040518060400160405280600d81526020016c7365744461746153747265616d60981b815250613461565b611f9461423f565b8051611fa19060016135c9565b6040805180820190915260058152643a37b5b2b760d91b60208201528151611fcc916000908a61362e565b6080810151611fdc9060016135c9565b60408051808201909152600681526519995959125960d21b6020820152608082015161200b9160009089613701565b606081015161201b9060016135c9565b60408051808201909152601281527119185d1854dd1c99585b525b9d995c9d195960721b602082015260608201516120569160009088613824565b60208101516120669060026135c9565b6120ae6000604051806040016040528060148152602001733230ba30a9ba3932b0b6a6bab63a34b83634b2b960611b815250868460200151613701909392919063ffffffff16565b6120ed60016040518060400160405280601f81526020016000805160206158ba833981519152815250858460200151613701909392919063ffffffff16565b604051630937807960e21b81526001600160a01b037f000000000000000000000000000000000000000000000000000000000000000016906324de01e490610831908590859060040161537b565b61214d6040516020016104ac9061464c565b6121556133b5565b60006121618383613754565b905061218e81604051806040016040528060098152602001686772616e74526f6c6560b81b815250613461565b61219661423f565b80516121a39060016135c9565b6040805180820190915260078152661858d8dbdd5b9d60ca1b602082015281516121d0916000908761362e565b60808101516121e09060016135c9565b604080518082019091526007815266726f6c654b657960c81b602082015260808201516122109160009086613701565b604051630937807960e21b81526001600160a01b037f000000000000000000000000000000000000000000000000000000000000000016906324de01e490610a1990859085906004016153be565b6060816001600160401b03811115612278576122786153fd565b6040519080825280602002602001820160405280156122ab57816020015b60608152602001906001900390816122965790505b50905060005b8281101561236a57600080308686858181106122cf576122cf615413565b90506020028101906122e19190615429565b6040516122ef929190615476565b600060405180830381855af49150503d806000811461232a576040519150601f19603f3d011682016040523d82523d6000602084013e61232f565b606091505b5091509150816123425761234281613d34565b8084848151811061235557612355615413565b602090810291909101015250506001016122b1565b505b92915050565b6123846040516020016104ac9061464c565b61238c6133b5565b6001600160a01b0381166123b5578060405163cb9339d560e01b815260040161051f91906143df565b60006123c082613d72565b90506123f2816040518060400160405280600e81526020016d39b2ba2332b2a932b1b2b4bb32b960911b815250613461565b6123fa61423f565b80516124079060016135c9565b6040805180820190915260078152661858d8dbdd5b9d60ca1b60208201528151612434916000908661362e565b604051630937807960e21b81526001600160a01b037f000000000000000000000000000000000000000000000000000000000000000016906324de01e4906105f69085908590600401615486565b6124946040516020016104ac9061464c565b61249c6133b5565b60006124a7826139a8565b90506124dd81604051806040016040528060128152602001713932b6b7bb32a7b930b1b632a9b4b3b732b960711b8152506137a9565b604051630e316ab760e01b81526001600160a01b037f00000000000000000000000000000000000000000000000000000000000000001690630e316ab7906125299085906004016143df565b600060405180830381600087803b15801561254357600080fd5b505af1158015612557573d6000803e3d6000fd5b5050505061256361423f565b80516125709060016135c9565b6040805180820190915260078152661858d8dbdd5b9d60ca1b6020820152815161259d916000908661362e565b604051630937807960e21b81526001600160a01b037f000000000000000000000000000000000000000000000000000000000000000016906324de01e4906105f690859085906004016154ca565b6125fd6040516020016104ac9061464c565b6126056133b5565b60006126118383613967565b90506126408160405180604001604052806018815260200160008051602061589a833981519152815250613461565b61264861423f565b80516126559060016135c9565b604080518082019091526008815267383937bb34b232b960c11b60208201528151612683916000908761362e565b60608101516126939060016135c9565b60408051808201909152600581526476616c756560d81b602082015260608201516126c19160009086613824565b60405163483624fb60e11b81526001600160a01b037f0000000000000000000000000000000000000000000000000000000000000000169063906c49f690610a1990849060040161550c565b61271f6040516020016104ac9061464c565b6127276133b5565b600061273282613d72565b9050612764816040518060400160405280600e81526020016d39b2ba2332b2a932b1b2b4bb32b960911b8152506137a9565b7f00000000000000000000000000000000000000000000000000000000000000006001600160a01b031663ca446dd96040516020016127c3906020808252600c908201526b2322a2afa922a1a2a4ab22a960a11b604082015260600190565b60405160208183030381529060405280519060200120846040518363ffffffff1660e01b81526004016127f792919061514f565b6020604051808303816000875af1158015612816573d6000803e3d6000fd5b505050506040513d601f19601f8201168201806040525081019061283a9190615166565b5061284361423f565b80516128509060016135c9565b6040805180820190915260078152661858d8dbdd5b9d60ca1b6020820152815161287d916000908661362e565b604051630937807960e21b81526001600160a01b037f000000000000000000000000000000000000000000000000000000000000000016906324de01e4906105f69085908590600401615553565b6128dd6040516020016104ac9061464c565b6128e56133b5565b60006128f183836139e5565b905061291f816040518060400160405280600a8152602001697265766f6b65526f6c6560b01b8152506137a9565b60405163208dd1ff60e01b81526001600160a01b037f0000000000000000000000000000000000000000000000000000000000000000169063208dd1ff9061296d9086908690600401614fe3565b600060405180830381600087803b15801561298757600080fd5b505af115801561299b573d6000803e3d6000fd5b505050506129a761423f565b80516129b49060016135c9565b6040805180820190915260078152661858d8dbdd5b9d60ca1b602082015281516129e1916000908761362e565b60808101516129f19060016135c9565b604080518082019091526007815266726f6c654b657960c81b60208201526080820151612a219160009086613701565b604051630937807960e21b81526001600160a01b037f000000000000000000000000000000000000000000000000000000000000000016906324de01e490610a199085908590600401615591565b612a816040516020016104ac9061464c565b612a896133b5565b6000612a958383613dab565b9050612ad0816040518060400160405280601781526020017639b2ba20ba37b6b4b1a7b930b1b632a83937bb34b232b960491b8152506137a9565b7f00000000000000000000000000000000000000000000000000000000000000006001600160a01b031663abfdcced612b0885613df8565b846040518363ffffffff1660e01b8152600401612b269291906150e0565b6020604051808303816000875af1158015612b45573d6000803e3d6000fd5b505050506040513d601f19601f82011682018060405250810190612b6991906150f0565b50612b7261423f565b8051612b7f9060016135c9565b604080518082019091526008815267383937bb34b232b960c11b60208201528151612bad916000908761362e565b6060810151612bbd9060016135c9565b60408051808201909152600581526476616c756560d81b60208201526060820151612beb9160009086613824565b60405163483624fb60e11b81526001600160a01b037f0000000000000000000000000000000000000000000000000000000000000000169063906c49f690610a199084906004016155bb565b612c496040516020016104ac9061464c565b612c516133b5565b6001548111612c76576040516373586edb60e11b81526004810182905260240161051f565b6001819055612c83613e37565b612c8b61423f565b6020810151612c9b9060016135c9565b612cdd60006040518060400160405280600e81526020016d5f74696d656c6f636b44656c617960901b815250848460200151613701909392919063ffffffff16565b60405163483624fb60e11b81526001600160a01b037f0000000000000000000000000000000000000000000000000000000000000000169063906c49f690612d299084906004016155fc565b600060405180830381600087803b158015612d4357600080fd5b505af1158015612d57573d6000803e3d6000fd5b50505050506106346001600055565b612d786040516020016104ac9061464c565b612d806133b5565b6000612d8f8686868686613cdc565b9050612dc0816040518060400160405280600d81526020016c7365744461746153747265616d60981b8152506137a9565b7f00000000000000000000000000000000000000000000000000000000000000006001600160a01b0316634e91db08612df888613e65565b876040518363ffffffff1660e01b8152600401612e1692919061528e565b6020604051808303816000875af1158015612e35573d6000803e3d6000fd5b505050506040513d601f19601f82011682018060405250810190612e59919061529c565b507f00000000000000000000000000000000000000000000000000000000000000006001600160a01b031663abfdcced612e9288613e99565b866040518363ffffffff1660e01b8152600401612eb09291906150e0565b6020604051808303816000875af1158015612ecf573d6000803e3d6000fd5b505050506040513d601f19601f82011682018060405250810190612ef391906150f0565b507f00000000000000000000000000000000000000000000000000000000000000006001600160a01b031663e2a4853a612f2c88613ed3565b856040518363ffffffff1660e01b8152600401612f4a92919061528e565b6020604051808303816000875af1158015612f69573d6000803e3d6000fd5b505050506040513d601f19601f82011682018060405250810190612f8d919061529c565b507f00000000000000000000000000000000000000000000000000000000000000006001600160a01b031663e2a4853a612fc688613f0f565b846040518363ffffffff1660e01b8152600401612fe492919061528e565b6020604051808303816000875af1158015613003573d6000803e3d6000fd5b505050506040513d601f19601f82011682018060405250810190613027919061529c565b5061303061423f565b805161303d9060016135c9565b6040805180820190915260058152643a37b5b2b760d91b60208201528151613068916000908a61362e565b60808101516130789060016135c9565b60408051808201909152600681526519995959125960d21b602082015260808201516130a79160009089613701565b60608101516130b79060016135c9565b60408051808201909152601281527119185d1854dd1c99585b525b9d995c9d195960721b602082015260608201516130f29160009088613824565b60208101516131029060026135c9565b61314a6000604051806040016040528060148152602001733230ba30a9ba3932b0b6a6bab63a34b83634b2b960611b815250868460200151613701909392919063ffffffff16565b61318960016040518060400160405280601f81526020016000805160206158ba833981519152815250858460200151613701909392919063ffffffff16565b604051630937807960e21b81526001600160a01b037f000000000000000000000000000000000000000000000000000000000000000016906324de01e490610831908590859060040161563b565b6131e96040516020016104ac9061464c565b6131f16133b5565b60006131fd8383613dab565b9050613238816040518060400160405280601781526020017639b2ba20ba37b6b4b1a7b930b1b632a83937bb34b232b960491b815250613461565b61324061423f565b805161324d9060016135c9565b604080518082019091526008815267383937bb34b232b960c11b6020820152815161327b916000908761362e565b606081015161328b9060016135c9565b60408051808201909152600581526476616c756560d81b602082015260608201516132b99160009086613824565b60405163483624fb60e11b81526001600160a01b037f0000000000000000000000000000000000000000000000000000000000000000169063906c49f690610a19908490600401615678565b60405163ac4ab3fb60e01b81526001600160a01b037f0000000000000000000000000000000000000000000000000000000000000000169063ac4ab3fb906133539033908690600401614fe3565b602060405180830381865afa158015613370573d6000803e3d6000fd5b505050506040513d601f19601f8201168201806040525081019061339491906150f0565b610a5757338160405163a35b150b60e01b815260040161051f9291906156bf565b6002600054036134075760405162461bcd60e51b815260206004820152601f60248201527f5265656e7472616e637947756172643a207265656e7472616e742063616c6c00604482015260640161051f565b6002600055565b6040516e30b23227b930b1b632a9b4b3b732b960891b60208201526001600160601b0319606083901b16602f8201526000906043015b604051602081830303815290604052805190602001209050919050565b6000828152600260205260409020541561348e5760405163b244a10760e01b815260040160405180910390fd5b60015461349b90426156f9565b6000838152600260205260409020556134b5600383613f20565b506134be61423f565b60808101516134ce9060016135c9565b604080518082019091526009815268616374696f6e4b657960b81b602082015260808201516135009160009086613701565b60c0810151613510906001613f33565b60408051808201909152600b81526a1858dd1a5bdb931858995b60aa1b602082015260c08201516135449160009085613f95565b604051630937807960e21b81526001600160a01b037f000000000000000000000000000000000000000000000000000000000000000016906324de01e490613592908690859060040161570c565b600060405180830381600087803b1580156135ac57600080fd5b505af11580156135c0573d6000803e3d6000fd5b50505050505050565b806001600160401b038111156135e1576135e16153fd565b60405190808252806020026020018201604052801561362757816020015b6040805180820190915260608152600060208201528152602001906001900390816135ff5790505b5090915250565b818460000151848151811061364557613645615413565b602002602001015160000181905250808460000151848151811061366b5761366b615413565b6020908102919091018101516001600160a01b0390921691015250505050565b604080516b1cd95d141c9a58d95199595960a21b60208201526001600160601b0319606088811b8216602c84015287901b169181019190915260548101849052607481018390526094810182905260009060b4015b60405160208183030381529060405280519060200120905095945050505050565b818460000151848151811061371857613718615413565b602002602001015160000181905250808460000151848151811061373e5761373e615413565b6020026020010151602001818152505050505050565b604051686772616e74526f6c6560b81b60208201526001600160601b0319606084901b166029820152603d8101829052600090605d015b60405160208183030381529060405280519060200120905092915050565b6137b282613fe7565b610a578282613b01565b60006040516020016137fc906020808252601a90820152791254d7d3d49050d31157d41493d59251115497d153905093115160321b604082015260600190565b604051602081830303815290604052805190602001208260405160200161344492919061514f565b818460000151848151811061383b5761383b615413565b602002602001015160000181905250808460000151848151811061386157613861615413565b60209081029190910181015191151591015250505050565b60405160008051602061587a83398151915260208201526001600160601b0319606084811b8216603984015283901b16604d82015260009060610161378b565b60006040516020016137fc9060208082526019908201527827a920a1a622afa82927ab24a222a92fa327a92faa27a5a2a760391b604082015260600190565b6040516f1cd95d141e5d1a13185e995c9199595960821b60208201526001600160601b0319606086901b1660308201526044810184905282151560f81b606482015260658101829052600090608501604051602081830303815290604052805190602001209050949350505050565b60405160008051602061589a83398151915260208201526001600160601b0319606084901b16603882015281151560f81b604c820152600090604d0161378b565b604051713932b6b7bb32a7b930b1b632a9b4b3b732b960711b60208201526001600160601b0319606083901b166032820152600090604601613444565b604051697265766f6b65526f6c6560b01b60208201526001600160601b0319606084901b16602a820152603e8101829052600090605e0161378b565b60006040516020016137fc906020808252600a908201526914149250d157d191515160b21b604082015260600190565b60006040516020016137fc90602080825260159082015274282924a1a2afa322a2a22fa6aaa62a24a82624a2a960591b604082015260600190565b60006040516020016137fc906020808252601d908201527f50524943455f464545445f4845415254424541545f4455524154494f4e000000604082015260600190565b60006040516020016137fc906020808252600c908201526b535441424c455f505249434560a01b604082015260600190565b6000828152600260205260408120549003613b2f57604051634a7ed75160e11b815260040160405180910390fd5b600082815260026020526040812055613b49600383614058565b50613b5261423f565b6080810151613b629060016135c9565b604080518082019091526009815268616374696f6e4b657960b81b60208201526080820151613b949160009086613701565b60c0810151613ba4906001613f33565b60408051808201909152600b81526a1858dd1a5bdb931858995b60aa1b602082015260c0820151613bd89160009085613f95565b604051630937807960e21b81526001600160a01b037f000000000000000000000000000000000000000000000000000000000000000016906324de01e490613592908690859060040161574f565b60006040516020016137fc906020808252601290820152711416551217d31056915497d191515117d25160721b604082015260600190565b60006040516020016137fc906020808252601890820152771416551217d31056915497d191515117d25395915495115160421b604082015260600190565b60006040516020016137fc906020808252601a9082015279282caa242fa620ad22a92fa322a2a22fa6aaa62a24a82624a2a960311b604082015260600190565b6040516c7365744461746153747265616d60981b60208201526001600160601b0319606087901b16602d8201526041810185905283151560f81b6061820152606281018390526082810182905260009060a2016136e0565b600080613d4083614064565b915091508015613d64578160405162461bcd60e51b815260040161051f9190615791565b613d6d836140f4565b505050565b6040516d39b2ba2332b2a932b1b2b4bb32b960911b60208201526001600160601b0319606083901b16602e820152600090604201613444565b6040517639b2ba20ba37b6b4b1a7b930b1b632a83937bb34b232b960491b60208201526001600160601b0319606084901b16603782015281151560f81b604b820152600090604c0161378b565b60006040516020016137fc9060208082526019908201527824a9afa0aa27a6a4a1afa7a920a1a622afa82927ab24a222a960391b604082015260600190565b620697806001541115613e6357600154604051633ebd9bc360e21b815260040161051f91815260200190565b565b60006040516020016137fc906020808252600e908201526d1110551057d4d51491505357d25160921b604082015260600190565b60006040516020016137fc906020808252601490820152731110551057d4d51491505357d25395915495115160621b604082015260600190565b60006040516020016137fc906020808252601690820152752220aa20afa9aa2922a0a6afa6aaa62a24a82624a2a960511b604082015260600190565b60006040516020016137fc90615338565b6000613f2c83836140fd565b9392505050565b806001600160401b03811115613f4b57613f4b6153fd565b60405190808252806020026020018201604052801561362757816020015b6040805180820190915260608082526020820152815260200190600190039081613f6957505090915250565b8184600001518481518110613fac57613fac615413565b6020026020010151600001819052508084600001518481518110613fd257613fd2615413565b60200260200101516020018190525050505050565b600081815260026020526040812054900361401557604051634a7ed75160e11b815260040160405180910390fd5b426000828152600260205260409020541115610634576000818152600260205260409081902054905163082c8d6160e21b8152600481019190915260240161051f565b6000613f2c838361414c565b6060600060448351101561408b575050604080516020810190915260008082529092909150565b6000614098846020015190565b90506307b9e43360e51b6001600160e01b03198216016140d757600484019350838060200190518101906140cc91906157a4565b946001945092505050565b600060405180602001604052806000815250909250925050915091565b80518060208301fd5b60008181526001830160205260408120546141445750815460018181018455600084815260208082209093018490558454848252828601909352604090209190915561236c565b50600061236c565b60008181526001830160205260408120548015614235576000614170600183615850565b855490915060009061418490600190615850565b90508181146141e95760008660000182815481106141a4576141a4615413565b90600052602060002001549050808760000184815481106141c7576141c7615413565b6000918252602080832090910192909255918252600188019052604090208390555b85548690806141fa576141fa615863565b60019003818190600052602060002001600090559055856001016000868152602001908152602001600020600090556001935050505061236c565b600091505061236c565b604080516101208101909152606060e0820181815261010083019190915281908152602001614281604051806040016040528060608152602001606081525090565b81526020016142a3604051806040016040528060608152602001606081525090565b81526020016142c5604051806040016040528060608152602001606081525090565b81526020016142e7604051806040016040528060608152602001606081525090565b8152602001614309604051806040016040528060608152602001606081525090565b815260200161432b604051806040016040528060608152602001606081525090565b905290565b6001600160a01b038116811461063457600080fd5b60006020828403121561435757600080fd5b8135613f2c81614330565b600080600080600060a0868803121561437a57600080fd5b853561438581614330565b9450602086013561439581614330565b94979496505050506040830135926060810135926080909101359150565b600080604083850312156143c657600080fd5b82356143d181614330565b946020939093013593505050565b6001600160a01b0391909116815260200190565b801515811461063457600080fd5b6000806040838503121561441457600080fd5b823561441f81614330565b9150602083013561442f816143f3565b809150509250929050565b6000806040838503121561444d57600080fd5b823561445881614330565b9150602083013561442f81614330565b6000806000806080858703121561447e57600080fd5b843561448981614330565b93506020850135925060408501356144a0816143f3565b9396929550929360600135925050565b6000602082840312156144c257600080fd5b5035919050565b600080600080600060a086880312156144e157600080fd5b85356144ec81614330565b9450602086013593506040860135614503816143f3565b94979396509394606081013594506080013592915050565b6000806020838503121561452e57600080fd5b82356001600160401b038082111561454557600080fd5b818501915085601f83011261455957600080fd5b81358181111561456857600080fd5b8660208260051b850101111561457d57600080fd5b60209290920196919550909350505050565b60005b838110156145aa578181015183820152602001614592565b50506000910152565b600081518084526145cb81602086016020860161458f565b601f01601f19169290920160200192915050565b60008282518085526020808601955060208260051b8401016020860160005b8481101561462c57601f1986840301895261461a8383516145b3565b988401989250908301906001016145fe565b5090979650505050505050565b602081526000613f2c60208301846145df565b6020808252600e908201526d2a24a6a2a627a1a5afa0a226a4a760911b604082015260600190565b600082825180855260208086019550808260051b8401018186016000805b8581101561471257601f19878503018a528251604081518187526146b8828801826145b3565b92880151878403888a0152805180855290890193869350890191505b808310156146fd5783516001600160a01b031682529288019260019290920191908801906146d4565b509b87019b9550505091840191600101614692565b509198975050505050505050565b6000604080840183516040865281815180845260608801915060608160051b89010193506020808401935060005b8281101561479857898603605f1901845284518051888852614772898901826145b3565b918401516001600160a01b0316978401979097529550938101939281019260010161474e565b50808801519550888503818a0152505050506147b48183614674565b95945050505050565b600082825180855260208086019550808260051b8401018186016000805b8581101561471257601f19878503018a52825160408151818752614801828801826145b3565b92880151878403888a0152805180855290890193869350890191505b8083101561483d578351825292880192600192909201919088019061481d565b509b87019b95505050918401916001016147db565b6000604080840183516040865281815180845260608801915060608160051b89010193506020808401935060005b828110156148c157898603605f19018452845180518888526148a4898901826145b3565b918401519784019790975295509381019392810192600101614880565b50808801519550888503818a0152505050506147b481836147bd565b600082825180855260208086019550808260051b8401018186016000805b8581101561471257601f19878503018a52825160408151818752614921828801826145b3565b92880151878403888a0152805180855290890193869350890191505b8083101561495d578351825292880192600192909201919088019061493d565b509b87019b95505050918401916001016148fb565b6000604080840183516040865281815180845260608801915060608160051b89010193506020808401935060005b828110156149e157898603605f19018452845180518888526149c4898901826145b3565b9184015197840197909752955093810193928101926001016149a0565b50808801519550888503818a0152505050506147b481836148dd565b600082825180855260208086019550808260051b8401018186016000805b8581101561471257601f19878503018a52825160408151818752614a41828801826145b3565b92880151878403888a0152805180855290890193869350890191505b80831015614a7f57835115158252928801926001929092019190880190614a5d565b509b87019b9550505091840191600101614a1b565b6000604080840183516040865281815180845260608801915060608160051b89010193506020808401935060005b82811015614b0557898603605f1901845284518051888852614ae6898901826145b3565b9184015115159784019790975295509381019392810192600101614ac2565b50808801519550888503818a0152505050506147b481836149fd565b600082825180855260208086019550808260051b8401018186016000805b8581101561471257601f19878503018a52825160408151818752614b65828801826145b3565b92880151878403888a0152805180855290890193869350890191505b80831015614ba15783518252928801926001929092019190880190614b81565b509b87019b9550505091840191600101614b3f565b6000604080840183516040865281815180845260608801915060608160051b89010193506020808401935060005b82811015614c2557898603605f1901845284518051888852614c08898901826145b3565b918401519784019790975295509381019392810192600101614be4565b50808801519550888503818a0152505050506147b48183614b21565b600082825180855260208086019550808260051b84010181860160005b8481101561462c57601f19868403018952815160408151818652614c84828701826145b3565b91505085820151915084810386860152614c9e81836145df565b9a86019a9450505090830190600101614c5e565b6000604080840183516040865281815180845260608801915060608160051b89010193506020808401935060005b82811015614d3057898603605f1901845284518051888852614d04898901826145b3565b9184015188830389860152919050614d1c81836145b3565b975050509381019392810192600101614ce0565b50808801519550888503818a0152505050506147b48183614c41565b6000828251808552602080860195506005818360051b8501018287016000805b86811015614dfb57601f1980898603018c52835160408151818852614d93828901826145b3565b928a0151888403898c01528051808552908b019392508a83019150808a1b83018b01875b82811015614de35786858303018452614dd18287516145b3565b958d0195938d01939150600101614db7565b509f8b019f9850505094880194505050600101614d6c565b50919998505050505050505050565b6000604080840183516040865281815180845260608801915060608160051b89010193506020808401935060005b82811015614e8857898603605f1901845284518051888852614e5c898901826145b3565b9184015188830389860152919050614e7481836145b3565b975050509381019392810192600101614e38565b50808801519550888503818a0152505050506147b48183614d4c565b6000815160e08452614eb960e0850182614720565b905060208301518482036020860152614ed28282614852565b91505060408301518482036040860152614eec8282614972565b91505060608301518482036060860152614f068282614a94565b91505060808301518482036080860152614f208282614bb6565b91505060a083015184820360a0860152614f3a8282614cb2565b91505060c083015184820360c08601526147b48282614e0a565b60608152601560608201527429b4b3b730b620b23227b930b1b632a9b4b3b732b960591b608082015282602082015260a060408201526000614f9960a0830184614ea4565b949350505050565b60608152601260608201527114da59db985b14d95d141c9a58d95199595960721b608082015282602082015260a060408201526000614f9960a0830184614ea4565b6001600160a01b03929092168252602082015260400190565b6060815260096060820152684772616e74526f6c6560b81b608082015282602082015260a060408201526000614f9960a0830184614ea4565b60208082526011908201527054494d454c4f434b5f4d554c544953494760781b604082015260600190565b600a8152695265766f6b65526f6c6560b01b602082015260400190565b60408152600061508f60408301615060565b8281036020840152614f998185614ea4565b60608152600f60608201526e20b23227b930b1b632a9b4b3b732b960891b608082015282602082015260a060408201526000614f9960a0830184614ea4565b9182521515602082015260400190565b60006020828403121561510257600080fd5b8151613f2c816143f3565b60408152601860408201527714d95d13dc9858db19541c9bdd9a59195c915b98589b195960421b6060820152608060208201526000613f2c6080830184614ea4565b9182526001600160a01b0316602082015260400190565b60006020828403121561517857600080fd5b8151613f2c81614330565b60408152601960408201527829b2ba27b930b1b632a83937bb34b232b92337b92a37b5b2b760391b6060820152608060208201526000613f2c6080830184614ea4565b60608152601060608201526f14d95d141e5d1a13185e995c9199595960821b608082015282602082015260a060408201526000614f9960a0830184614ea4565b60608152601860608201527729b4b3b730b62932b6b7bb32a7b930b1b632a9b4b3b732b960411b608082015282602082015260a060408201526000614f9960a0830184614ea4565b60608152601060608201526f5369676e616c5265766f6b65526f6c6560801b608082015282602082015260a060408201526000614f9960a0830184614ea4565b918252602082015260400190565b6000602082840312156152ae57600080fd5b5051919050565b60608152600c60608201526b14d95d141c9a58d95199595960a21b608082015282602082015260a060408201526000614f9960a0830184614ea4565b60408152601f60408201527f5369676e616c5365744f7261636c6550726f7669646572466f72546f6b656e006060820152608060208201526000613f2c6080830184614ea4565b60208082526023908201527f444154415f53545245414d5f5350524541445f524544554354494f4e5f4641436040820152622a27a960e91b606082015260800190565b6060815260136060820152725369676e616c5365744461746153747265616d60681b608082015282602082015260a060408201526000614f9960a0830184614ea4565b60608152600f60608201526e5369676e616c4772616e74526f6c6560881b608082015282602082015260a060408201526000614f9960a0830184614ea4565b634e487b7160e01b600052604160045260246000fd5b634e487b7160e01b600052603260045260246000fd5b6000808335601e1984360301811261544057600080fd5b8301803591506001600160401b0382111561545a57600080fd5b60200191503681900382131561546f57600080fd5b9250929050565b8183823760009101908152919050565b60608152601460608201527329b4b3b730b629b2ba2332b2a932b1b2b4bb32b960611b608082015282602082015260a060408201526000614f9960a0830184614ea4565b6060815260126060820152712932b6b7bb32a7b930b1b632a9b4b3b732b960711b608082015282602082015260a060408201526000614f9960a0830184614ea4565b60408152601e60408201527f5369676e616c5365744f7261636c6550726f7669646572456e61626c656400006060820152608060208201526000613f2c6080830184614ea4565b60608152600e60608201526d29b2ba2332b2a932b1b2b4bb32b960911b608082015282602082015260a060408201526000614f9960a0830184614ea4565b6060815260006155a360608301615060565b84602084015282810360408401526147b48185614ea4565b60408152601760408201527629b2ba20ba37b6b4b1a7b930b1b632a83937bb34b232b960491b6060820152608060208201526000613f2c6080830184614ea4565b604081526015604082015274496e63726561736554696d656c6f636b44656c617960581b6060820152608060208201526000613f2c6080830184614ea4565b60608152600d60608201526c5365744461746153747265616d60981b608082015282602082015260a060408201526000614f9960a0830184614ea4565b60408152601d60408201527f5369676e616c53657441746f6d69634f7261636c6550726f76696465720000006060820152608060208201526000613f2c6080830184614ea4565b6001600160a01b0383168152604060208201819052600090614f99908301846145b3565b634e487b7160e01b600052601160045260246000fd5b8082018082111561236c5761236c6156e3565b60608152601360608201527229b4b3b730b62832b73234b733a0b1ba34b7b760691b608082015282602082015260a060408201526000614f9960a0830184614ea4565b60608152601260608201527121b632b0b92832b73234b733a0b1ba34b7b760711b608082015282602082015260a060408201526000614f9960a0830184614ea4565b602081526000613f2c60208301846145b3565b6000602082840312156157b657600080fd5b81516001600160401b03808211156157cd57600080fd5b818401915084601f8301126157e157600080fd5b8151818111156157f3576157f36153fd565b604051601f8201601f19908116603f0116810190838211818310171561581b5761581b6153fd565b8160405282815287602084870101111561583457600080fd5b61584583602083016020880161458f565b979650505050505050565b8181038181111561236c5761236c6156e3565b634e487b7160e01b600052603160045260246000fdfe7365744f7261636c6550726f7669646572466f72546f6b656e000000000000007365744f7261636c6550726f7669646572456e61626c656400000000000000006461746153747265616d537072656164526564756374696f6e466163746f7200a2646970667358221220158ad07cfac62980778c1de72560f4aab54e663bde73e881cf6a82a1bb67aca164736f6c63430008180033",
  "libraries": {},
  "devdoc": {
    "kind": "dev",
    "methods": {
      "multicall(bytes[])": {
        "details": "Receives and executes a batch of function calls on this contract."
      }
    },
    "version": 1
  },
  "userdoc": {
    "kind": "user",
    "methods": {},
    "version": 1
  },
  "storageLayout": {
    "storage": [
      {
        "astId": 7027,
        "contract": "contracts/config/Timelock.sol:Timelock",
        "label": "_status",
        "offset": 0,
        "slot": "0",
        "type": "t_uint256"
      },
      {
        "astId": 23275,
        "contract": "contracts/config/Timelock.sol:Timelock",
        "label": "timelockDelay",
        "offset": 0,
        "slot": "1",
        "type": "t_uint256"
      },
      {
        "astId": 23279,
        "contract": "contracts/config/Timelock.sol:Timelock",
        "label": "pendingActions",
        "offset": 0,
        "slot": "2",
        "type": "t_mapping(t_bytes32,t_uint256)"
      },
      {
        "astId": 23282,
        "contract": "contracts/config/Timelock.sol:Timelock",
        "label": "pendingActionsList",
        "offset": 0,
        "slot": "3",
        "type": "t_struct(Bytes32Set)15335_storage"
      }
    ],
    "types": {
      "t_array(t_bytes32)dyn_storage": {
        "base": "t_bytes32",
        "encoding": "dynamic_array",
        "label": "bytes32[]",
        "numberOfBytes": "32"
      },
      "t_bytes32": {
        "encoding": "inplace",
        "label": "bytes32",
        "numberOfBytes": "32"
      },
      "t_mapping(t_bytes32,t_uint256)": {
        "encoding": "mapping",
        "key": "t_bytes32",
        "label": "mapping(bytes32 => uint256)",
        "numberOfBytes": "32",
        "value": "t_uint256"
      },
      "t_struct(Bytes32Set)15335_storage": {
        "encoding": "inplace",
        "label": "struct EnumerableSet.Bytes32Set",
        "members": [
          {
            "astId": 15334,
            "contract": "contracts/config/Timelock.sol:Timelock",
            "label": "_inner",
            "offset": 0,
            "slot": "0",
            "type": "t_struct(Set)15141_storage"
          }
        ],
        "numberOfBytes": "64"
      },
      "t_struct(Set)15141_storage": {
        "encoding": "inplace",
        "label": "struct EnumerableSet.Set",
        "members": [
          {
            "astId": 15136,
            "contract": "contracts/config/Timelock.sol:Timelock",
            "label": "_values",
            "offset": 0,
            "slot": "0",
            "type": "t_array(t_bytes32)dyn_storage"
          },
          {
            "astId": 15140,
            "contract": "contracts/config/Timelock.sol:Timelock",
            "label": "_indexes",
            "offset": 0,
            "slot": "1",
            "type": "t_mapping(t_bytes32,t_uint256)"
          }
        ],
        "numberOfBytes": "64"
      },
      "t_uint256": {
        "encoding": "inplace",
        "label": "uint256",
        "numberOfBytes": "32"
      }
    }
  }
}